{
  "_format": "hh-sol-artifact-1",
  "contractName": "FSCEngine",
  "sourceName": "contracts/FSCEngine.sol",
  "abi": [
    {
      "inputs": [
        {
          "internalType": "address[]",
          "name": "tokenAddresses",
          "type": "address[]"
        },
        {
          "internalType": "address[]",
          "name": "priceFeedAddresses",
          "type": "address[]"
        },
        {
          "internalType": "address",
          "name": "dscAddress",
          "type": "address"
        }
      ],
      "stateMutability": "nonpayable",
      "type": "constructor"
    },
    {
      "inputs": [
        {
          "internalType": "uint256",
          "name": "healthFactorValue",
          "type": "uint256"
        }
      ],
      "name": "FSCEngine__BreaksHealthFactor",
      "type": "error"
    },
    {
      "inputs": [],
      "name": "FSCEngine__HealthFactorNotImproved",
      "type": "error"
    },
    {
      "inputs": [],
      "name": "FSCEngine__HealthFactorOk",
      "type": "error"
    },
    {
      "inputs": [],
      "name": "FSCEngine__MintFailed",
      "type": "error"
    },
    {
      "inputs": [],
      "name": "FSCEngine__NeedsMoreThanZero",
      "type": "error"
    },
    {
      "inputs": [],
      "name": "FSCEngine__TokenAddressesAndPriceFeedAddressesAmountsDontMatch",
      "type": "error"
    },
    {
      "inputs": [
        {
          "internalType": "address",
          "name": "token",
          "type": "address"
        }
      ],
      "name": "FSCEngine__TokenNotAllowed",
      "type": "error"
    },
    {
      "inputs": [],
      "name": "FSCEngine__TransferFailed",
      "type": "error"
    },
    {
      "anonymous": false,
      "inputs": [
        {
          "indexed": true,
          "internalType": "address",
          "name": "user",
          "type": "address"
        },
        {
          "indexed": true,
          "internalType": "address",
          "name": "token",
          "type": "address"
        },
        {
          "indexed": true,
          "internalType": "uint256",
          "name": "amount",
          "type": "uint256"
        }
      ],
      "name": "CollateralDeposited",
      "type": "event"
    },
    {
      "anonymous": false,
      "inputs": [
        {
          "indexed": true,
          "internalType": "address",
          "name": "redeemFrom",
          "type": "address"
        },
        {
          "indexed": true,
          "internalType": "address",
          "name": "redeemTo",
          "type": "address"
        },
        {
          "indexed": false,
          "internalType": "address",
          "name": "token",
          "type": "address"
        },
        {
          "indexed": false,
          "internalType": "uint256",
          "name": "amount",
          "type": "uint256"
        }
      ],
      "name": "CollateralRedeemed",
      "type": "event"
    },
    {
      "inputs": [
        {
          "internalType": "uint256",
          "name": "amount",
          "type": "uint256"
        }
      ],
      "name": "burnDsc",
      "outputs": [],
      "stateMutability": "nonpayable",
      "type": "function"
    },
    {
      "inputs": [
        {
          "internalType": "uint256",
          "name": "totalDscMinted",
          "type": "uint256"
        },
        {
          "internalType": "uint256",
          "name": "collateralValueInUsd",
          "type": "uint256"
        }
      ],
      "name": "calculateHealthFactor",
      "outputs": [
        {
          "internalType": "uint256",
          "name": "",
          "type": "uint256"
        }
      ],
      "stateMutability": "pure",
      "type": "function"
    },
    {
      "inputs": [
        {
          "internalType": "address",
          "name": "tokenCollateralAddress",
          "type": "address"
        },
        {
          "internalType": "uint256",
          "name": "amountCollateral",
          "type": "uint256"
        }
      ],
      "name": "depositCollateral",
      "outputs": [],
      "stateMutability": "nonpayable",
      "type": "function"
    },
    {
      "inputs": [
        {
          "internalType": "address",
          "name": "tokenCollateralAddress",
          "type": "address"
        },
        {
          "internalType": "uint256",
          "name": "amountCollateral",
          "type": "uint256"
        },
        {
          "internalType": "uint256",
          "name": "amountDscToMint",
          "type": "uint256"
        }
      ],
      "name": "depositCollateralAndMintDsc",
      "outputs": [],
      "stateMutability": "nonpayable",
      "type": "function"
    },
    {
      "inputs": [
        {
          "internalType": "address",
          "name": "user",
          "type": "address"
        }
      ],
      "name": "getAccountCollateralValue",
      "outputs": [
        {
          "internalType": "uint256",
          "name": "totalCollateralValueInUsd",
          "type": "uint256"
        }
      ],
      "stateMutability": "view",
      "type": "function"
    },
    {
      "inputs": [
        {
          "internalType": "address",
          "name": "user",
          "type": "address"
        }
      ],
      "name": "getAccountInformation",
      "outputs": [
        {
          "internalType": "uint256",
          "name": "totalDscMinted",
          "type": "uint256"
        },
        {
          "internalType": "uint256",
          "name": "collateralValueInUsd",
          "type": "uint256"
        }
      ],
      "stateMutability": "view",
      "type": "function"
    },
    {
      "inputs": [],
      "name": "getAdditionalFeedPrecision",
      "outputs": [
        {
          "internalType": "uint256",
          "name": "",
          "type": "uint256"
        }
      ],
      "stateMutability": "pure",
      "type": "function"
    },
    {
      "inputs": [
        {
          "internalType": "address",
          "name": "user",
          "type": "address"
        },
        {
          "internalType": "address",
          "name": "token",
          "type": "address"
        }
      ],
      "name": "getCollateralBalanceOfUser",
      "outputs": [
        {
          "internalType": "uint256",
          "name": "",
          "type": "uint256"
        }
      ],
      "stateMutability": "view",
      "type": "function"
    },
    {
      "inputs": [
        {
          "internalType": "address",
          "name": "token",
          "type": "address"
        }
      ],
      "name": "getCollateralTokenPriceFeed",
      "outputs": [
        {
          "internalType": "address",
          "name": "",
          "type": "address"
        }
      ],
      "stateMutability": "view",
      "type": "function"
    },
    {
      "inputs": [],
      "name": "getCollateralTokens",
      "outputs": [
        {
          "internalType": "address[]",
          "name": "",
          "type": "address[]"
        }
      ],
      "stateMutability": "view",
      "type": "function"
    },
    {
      "inputs": [],
      "name": "getDsc",
      "outputs": [
        {
          "internalType": "address",
          "name": "",
          "type": "address"
        }
      ],
      "stateMutability": "view",
      "type": "function"
    },
    {
      "inputs": [
        {
          "internalType": "address",
          "name": "user",
          "type": "address"
        }
      ],
      "name": "getHealthFactor",
      "outputs": [
        {
          "internalType": "uint256",
          "name": "",
          "type": "uint256"
        }
      ],
      "stateMutability": "view",
      "type": "function"
    },
    {
      "inputs": [],
      "name": "getLiquidationBonus",
      "outputs": [
        {
          "internalType": "uint256",
          "name": "",
          "type": "uint256"
        }
      ],
      "stateMutability": "pure",
      "type": "function"
    },
    {
      "inputs": [],
      "name": "getLiquidationThreshold",
      "outputs": [
        {
          "internalType": "uint256",
          "name": "",
          "type": "uint256"
        }
      ],
      "stateMutability": "pure",
      "type": "function"
    },
    {
      "inputs": [],
      "name": "getMinHealthFactor",
      "outputs": [
        {
          "internalType": "uint256",
          "name": "",
          "type": "uint256"
        }
      ],
      "stateMutability": "pure",
      "type": "function"
    },
    {
      "inputs": [],
      "name": "getPrecision",
      "outputs": [
        {
          "internalType": "uint256",
          "name": "",
          "type": "uint256"
        }
      ],
      "stateMutability": "pure",
      "type": "function"
    },
    {
      "inputs": [
        {
          "internalType": "address",
          "name": "token",
          "type": "address"
        },
        {
          "internalType": "uint256",
          "name": "usdAmountInWei",
          "type": "uint256"
        }
      ],
      "name": "getTokenAmountFromUsd",
      "outputs": [
        {
          "internalType": "uint256",
          "name": "",
          "type": "uint256"
        }
      ],
      "stateMutability": "view",
      "type": "function"
    },
    {
      "inputs": [
        {
          "internalType": "address",
          "name": "token",
          "type": "address"
        },
        {
          "internalType": "uint256",
          "name": "amount",
          "type": "uint256"
        }
      ],
      "name": "getUsdValue",
      "outputs": [
        {
          "internalType": "uint256",
          "name": "",
          "type": "uint256"
        }
      ],
      "stateMutability": "view",
      "type": "function"
    },
    {
      "inputs": [
        {
          "internalType": "address",
          "name": "collateral",
          "type": "address"
        },
        {
          "internalType": "address",
          "name": "user",
          "type": "address"
        },
        {
          "internalType": "uint256",
          "name": "debtToCover",
          "type": "uint256"
        }
      ],
      "name": "liquidate",
      "outputs": [],
      "stateMutability": "nonpayable",
      "type": "function"
    },
    {
      "inputs": [
        {
          "internalType": "uint256",
          "name": "amountDscToMint",
          "type": "uint256"
        }
      ],
      "name": "mintDsc",
      "outputs": [],
      "stateMutability": "nonpayable",
      "type": "function"
    },
    {
      "inputs": [
        {
          "internalType": "address",
          "name": "tokenCollateralAddress",
          "type": "address"
        },
        {
          "internalType": "uint256",
          "name": "amountCollateral",
          "type": "uint256"
        }
      ],
      "name": "redeemCollateral",
      "outputs": [],
      "stateMutability": "nonpayable",
      "type": "function"
    },
    {
      "inputs": [
        {
          "internalType": "address",
          "name": "tokenCollateralAddress",
          "type": "address"
        },
        {
          "internalType": "uint256",
          "name": "amountCollateral",
          "type": "uint256"
        },
        {
          "internalType": "uint256",
          "name": "amountDscToBurn",
          "type": "uint256"
        }
      ],
      "name": "redeemCollateralForDsc",
      "outputs": [],
      "stateMutability": "nonpayable",
      "type": "function"
    }
  ],
  "bytecode": "0x60a06040523480156200001157600080fd5b506040516200231e3803806200231e833981810160405281019062000037919062000402565b600160008190555081518351146200007b576040517f34e2b1d700000000000000000000000000000000000000000000000000000000815260040160405180910390fd5b60005b8351811015620001d6578281815181106200009e576200009d6200049c565b5b602002602001015160016000868481518110620000c057620000bf6200049c565b5b602002602001015173ffffffffffffffffffffffffffffffffffffffff1673ffffffffffffffffffffffffffffffffffffffff16815260200190815260200160002060006101000a81548173ffffffffffffffffffffffffffffffffffffffff021916908373ffffffffffffffffffffffffffffffffffffffff16021790555060048482815181106200015857620001576200049c565b5b60200260200101519080600181540180825580915050600190039060005260206000200160009091909190916101000a81548173ffffffffffffffffffffffffffffffffffffffff021916908373ffffffffffffffffffffffffffffffffffffffff1602179055508080620001cd9062000504565b9150506200007e565b508073ffffffffffffffffffffffffffffffffffffffff1660808173ffffffffffffffffffffffffffffffffffffffff168152505050505062000551565b6000604051905090565b600080fd5b600080fd5b600080fd5b6000601f19601f8301169050919050565b7f4e487b7100000000000000000000000000000000000000000000000000000000600052604160045260246000fd5b62000278826200022d565b810181811067ffffffffffffffff821117156200029a57620002996200023e565b5b80604052505050565b6000620002af62000214565b9050620002bd82826200026d565b919050565b600067ffffffffffffffff821115620002e057620002df6200023e565b5b602082029050602081019050919050565b600080fd5b600073ffffffffffffffffffffffffffffffffffffffff82169050919050565b60006200032382620002f6565b9050919050565b620003358162000316565b81146200034157600080fd5b50565b60008151905062000355816200032a565b92915050565b6000620003726200036c84620002c2565b620002a3565b90508083825260208201905060208402830185811115620003985762000397620002f1565b5b835b81811015620003c55780620003b0888262000344565b8452602084019350506020810190506200039a565b5050509392505050565b600082601f830112620003e757620003e662000228565b5b8151620003f98482602086016200035b565b91505092915050565b6000806000606084860312156200041e576200041d6200021e565b5b600084015167ffffffffffffffff8111156200043f576200043e62000223565b5b6200044d86828701620003cf565b935050602084015167ffffffffffffffff81111562000471576200047062000223565b5b6200047f86828701620003cf565b9250506040620004928682870162000344565b9150509250925092565b7f4e487b7100000000000000000000000000000000000000000000000000000000600052603260045260246000fd5b7f4e487b7100000000000000000000000000000000000000000000000000000000600052601160045260246000fd5b6000819050919050565b60006200051182620004fa565b91507fffffffffffffffffffffffffffffffffffffffffffffffffffffffffffffffff8203620005465762000545620004cb565b5b600182019050919050565b608051611d9c6200058260003960008181610d8e01528181610e7b0152818161127c01526113550152611d9c6000f3fe608060405234801561001057600080fd5b50600436106101425760003560e01c80639acd81b3116100b8578063c9b7c3271161007c578063c9b7c327146103a0578063deb8e018146103bc578063e90db8a3146103da578063f419ea9c146103f6578063f687660814610412578063fe6bcd7c1461042e57610142565b80639acd81b3146102ea578063a5d5db0c14610306578063afea2e4814610322578063b58eb63f14610352578063c660d1121461037057610142565b806359aa9e721161010a57806359aa9e72146102115780637be564fc1461022f5780637d1a4450146102605780638c1ae6c8146102905780638f63d667146102ae5780639670c0bc146102cc57610142565b806301f72884146101475780631c08adda1461017757806326c01303146101a757806331e92b83146101c35780634ae9b8bc146101f3575b600080fd5b610161600480360381019061015c91906115f1565b61045e565b60405161016e9190611640565b60405180910390f35b610191600480360381019061018c91906116b9565b610472565b60405161019e91906116f5565b60405180910390f35b6101c160048036038101906101bc9190611710565b6104db565b005b6101dd60048036038101906101d89190611763565b61061a565b6040516101ea9190611640565b60405180910390f35b6101fb6106a1565b6040516102089190611640565b60405180910390f35b6102196106aa565b6040516102269190611640565b60405180910390f35b610249600480360381019061024491906116b9565b6106b3565b6040516102579291906117a3565b60405180910390f35b61027a600480360381019061027591906116b9565b6106c8565b6040516102879190611640565b60405180910390f35b6102986107d3565b6040516102a59190611640565b60405180910390f35b6102b66107e3565b6040516102c39190611640565b60405180910390f35b6102d46107f0565b6040516102e19190611640565b60405180910390f35b61030460048036038101906102ff91906117cc565b610800565b005b610320600480360381019061031b91906117cc565b610865565b005b61033c600480360381019061033791906117cc565b610b31565b6040516103499190611640565b60405180910390f35b61035a610c46565b60405161036791906118ca565b60405180910390f35b61038a600480360381019061038591906117cc565b610cd4565b6040516103979190611640565b60405180910390f35b6103ba60048036038101906103b591906118ec565b610ce8565b005b6103c4610e77565b6040516103d191906116f5565b60405180910390f35b6103f460048036038101906103ef9190611919565b610e9f565b005b610410600480360381019061040b9190611919565b610eb7565b005b61042c600480360381019061042791906118ec565b610f18565b005b610448600480360381019061044391906116b9565b610f6b565b6040516104559190611640565b60405180910390f35b600061046a8383610f7d565b905092915050565b6000600160008373ffffffffffffffffffffffffffffffffffffffff1673ffffffffffffffffffffffffffffffffffffffff16815260200190815260200160002060009054906101000a900473ffffffffffffffffffffffffffffffffffffffff169050919050565b8060008103610516576040517fc5f9c55700000000000000000000000000000000000000000000000000000000815260040160405180910390fd5b61051e610ff4565b600061052984611043565b9050670de0b6b3a7640000811061056c576040517f4a0c91f700000000000000000000000000000000000000000000000000000000815260040160405180910390fd5b60006105788685610b31565b905060006064600a8361058b919061199b565b6105959190611a0c565b90506105ae8782846105a79190611a3d565b8833611068565b6105b9858733611222565b60006105c487611043565b90508381116105ff576040517ffe0c8ea300000000000000000000000000000000000000000000000000000000815260040160405180910390fd5b610608336113e4565b50505050610614611442565b50505050565b6000600260008473ffffffffffffffffffffffffffffffffffffffff1673ffffffffffffffffffffffffffffffffffffffff16815260200190815260200160002060008373ffffffffffffffffffffffffffffffffffffffff1673ffffffffffffffffffffffffffffffffffffffff16815260200190815260200160002054905092915050565b60006032905090565b6000600a905090565b6000806106bf8361144c565b91509150915091565b600080600090505b6004805490508110156107cd576000600482815481106106f3576106f2611a71565b5b9060005260206000200160009054906101000a900473ffffffffffffffffffffffffffffffffffffffff1690506000600260008673ffffffffffffffffffffffffffffffffffffffff1673ffffffffffffffffffffffffffffffffffffffff16815260200190815260200160002060008373ffffffffffffffffffffffffffffffffffffffff1673ffffffffffffffffffffffffffffffffffffffff1681526020019081526020016000205490506107ab82826114a1565b846107b69190611a3d565b9350505080806107c590611aa0565b9150506106d0565b50919050565b6000670de0b6b3a7640000905090565b60006402540be400905090565b6000670de0b6b3a7640000905090565b806000810361083b576040517fc5f9c55700000000000000000000000000000000000000000000000000000000815260040160405180910390fd5b610843610ff4565b61084f83833333611068565b610858336113e4565b610860611442565b505050565b80600081036108a0576040517fc5f9c55700000000000000000000000000000000000000000000000000000000815260040160405180910390fd5b6108a8610ff4565b82600073ffffffffffffffffffffffffffffffffffffffff16600160008373ffffffffffffffffffffffffffffffffffffffff1673ffffffffffffffffffffffffffffffffffffffff16815260200190815260200160002060009054906101000a900473ffffffffffffffffffffffffffffffffffffffff1673ffffffffffffffffffffffffffffffffffffffff160361097957806040517f735dd08d00000000000000000000000000000000000000000000000000000000815260040161097091906116f5565b60405180910390fd5b82600260003373ffffffffffffffffffffffffffffffffffffffff1673ffffffffffffffffffffffffffffffffffffffff16815260200190815260200160002060008673ffffffffffffffffffffffffffffffffffffffff1673ffffffffffffffffffffffffffffffffffffffff1681526020019081526020016000206000828254610a059190611a3d565b92505081905550828473ffffffffffffffffffffffffffffffffffffffff163373ffffffffffffffffffffffffffffffffffffffff167ff1c0dd7e9b98bbff859029005ef89b127af049cd18df1a8d79f0b7e019911e5660405160405180910390a460008473ffffffffffffffffffffffffffffffffffffffff166323b872dd3330876040518463ffffffff1660e01b8152600401610aa693929190611ae8565b6020604051808303816000875af1158015610ac5573d6000803e3d6000fd5b505050506040513d601f19601f82011682018060405250810190610ae99190611b57565b905080610b22576040517f1463090600000000000000000000000000000000000000000000000000000000815260040160405180910390fd5b5050610b2c611442565b505050565b600080600160008573ffffffffffffffffffffffffffffffffffffffff1673ffffffffffffffffffffffffffffffffffffffff16815260200190815260200160002060009054906101000a900473ffffffffffffffffffffffffffffffffffffffff16905060008173ffffffffffffffffffffffffffffffffffffffff1663feaf968c6040518163ffffffff1660e01b815260040160a060405180830381865afa158015610be3573d6000803e3d6000fd5b505050506040513d601f19601f82011682018060405250810190610c079190611c11565b5050509150506402540be40081610c1e919061199b565b670de0b6b3a764000085610c32919061199b565b610c3c9190611a0c565b9250505092915050565b60606004805480602002602001604051908101604052809291908181526020018280548015610cca57602002820191906000526020600020905b8160009054906101000a900473ffffffffffffffffffffffffffffffffffffffff1673ffffffffffffffffffffffffffffffffffffffff1681526020019060010190808311610c80575b5050505050905090565b6000610ce083836114a1565b905092915050565b8060008103610d23576040517fc5f9c55700000000000000000000000000000000000000000000000000000000815260040160405180910390fd5b610d2b610ff4565b81600360003373ffffffffffffffffffffffffffffffffffffffff1673ffffffffffffffffffffffffffffffffffffffff1681526020019081526020016000206000828254610d7a9190611a3d565b92505081905550610d8a336113e4565b60007f000000000000000000000000000000000000000000000000000000000000000073ffffffffffffffffffffffffffffffffffffffff166340c10f1933856040518363ffffffff1660e01b8152600401610de7929190611c8c565b6020604051808303816000875af1158015610e06573d6000803e3d6000fd5b505050506040513d601f19601f82011682018060405250810190610e2a9190611b57565b90506001151581151514610e6a576040517f81c2c9ad00000000000000000000000000000000000000000000000000000000815260040160405180910390fd5b50610e73611442565b5050565b60007f0000000000000000000000000000000000000000000000000000000000000000905090565b610ea98383610865565b610eb281610ce8565b505050565b8160008103610ef2576040517fc5f9c55700000000000000000000000000000000000000000000000000000000815260040160405180910390fd5b610efd823333611222565b610f0984843333611068565b610f12336113e4565b50505050565b8060008103610f53576040517fc5f9c55700000000000000000000000000000000000000000000000000000000815260040160405180910390fd5b610f5e823333611222565b610f67336113e4565b5050565b6000610f7682611043565b9050919050565b6000808303610fae577fffffffffffffffffffffffffffffffffffffffffffffffffffffffffffffffff9050610fee565b60006064603284610fbf919061199b565b610fc99190611a0c565b905083670de0b6b3a764000082610fe0919061199b565b610fea9190611a0c565b9150505b92915050565b600260005403611039576040517f08c379a000000000000000000000000000000000000000000000000000000000815260040161103090611d12565b60405180910390fd5b6002600081905550565b60008060006110518461144c565b9150915061105f8282610f7d565b92505050919050565b82600260008473ffffffffffffffffffffffffffffffffffffffff1673ffffffffffffffffffffffffffffffffffffffff16815260200190815260200160002060008673ffffffffffffffffffffffffffffffffffffffff1673ffffffffffffffffffffffffffffffffffffffff16815260200190815260200160002060008282546110f49190611d32565b925050819055508073ffffffffffffffffffffffffffffffffffffffff168273ffffffffffffffffffffffffffffffffffffffff167fb292db12b8dfa23b760ee5e3bd1d3be184cd8f0eeeacd27ce120d4de4e4721f6868660405161115a929190611c8c565b60405180910390a360008473ffffffffffffffffffffffffffffffffffffffff1663a9059cbb83866040518363ffffffff1660e01b815260040161119f929190611c8c565b6020604051808303816000875af11580156111be573d6000803e3d6000fd5b505050506040513d601f19601f820116820180604052508101906111e29190611b57565b90508061121b576040517f1463090600000000000000000000000000000000000000000000000000000000815260040160405180910390fd5b5050505050565b82600360008473ffffffffffffffffffffffffffffffffffffffff1673ffffffffffffffffffffffffffffffffffffffff16815260200190815260200160002060008282546112719190611d32565b9250508190555060007f000000000000000000000000000000000000000000000000000000000000000073ffffffffffffffffffffffffffffffffffffffff166323b872dd8330876040518463ffffffff1660e01b81526004016112d793929190611ae8565b6020604051808303816000875af11580156112f6573d6000803e3d6000fd5b505050506040513d601f19601f8201168201806040525081019061131a9190611b57565b905080611353576040517f1463090600000000000000000000000000000000000000000000000000000000815260040160405180910390fd5b7f000000000000000000000000000000000000000000000000000000000000000073ffffffffffffffffffffffffffffffffffffffff166342966c68856040518263ffffffff1660e01b81526004016113ac9190611640565b600060405180830381600087803b1580156113c657600080fd5b505af11580156113da573d6000803e3d6000fd5b5050505050505050565b60006113ef82611043565b9050670de0b6b3a764000081101561143e57806040517fdffe3df20000000000000000000000000000000000000000000000000000000081526004016114359190611640565b60405180910390fd5b5050565b6001600081905550565b600080600360008473ffffffffffffffffffffffffffffffffffffffff1673ffffffffffffffffffffffffffffffffffffffff16815260200190815260200160002054915061149a836106c8565b9050915091565b600080600160008573ffffffffffffffffffffffffffffffffffffffff1673ffffffffffffffffffffffffffffffffffffffff16815260200190815260200160002060009054906101000a900473ffffffffffffffffffffffffffffffffffffffff16905060008173ffffffffffffffffffffffffffffffffffffffff1663feaf968c6040518163ffffffff1660e01b815260040160a060405180830381865afa158015611553573d6000803e3d6000fd5b505050506040513d601f19601f820116820180604052508101906115779190611c11565b505050915050670de0b6b3a7640000846402540be40083611598919061199b565b6115a2919061199b565b6115ac9190611a0c565b9250505092915050565b600080fd5b6000819050919050565b6115ce816115bb565b81146115d957600080fd5b50565b6000813590506115eb816115c5565b92915050565b60008060408385031215611608576116076115b6565b5b6000611616858286016115dc565b9250506020611627858286016115dc565b9150509250929050565b61163a816115bb565b82525050565b60006020820190506116556000830184611631565b92915050565b600073ffffffffffffffffffffffffffffffffffffffff82169050919050565b60006116868261165b565b9050919050565b6116968161167b565b81146116a157600080fd5b50565b6000813590506116b38161168d565b92915050565b6000602082840312156116cf576116ce6115b6565b5b60006116dd848285016116a4565b91505092915050565b6116ef8161167b565b82525050565b600060208201905061170a60008301846116e6565b92915050565b600080600060608486031215611729576117286115b6565b5b6000611737868287016116a4565b9350506020611748868287016116a4565b9250506040611759868287016115dc565b9150509250925092565b6000806040838503121561177a576117796115b6565b5b6000611788858286016116a4565b9250506020611799858286016116a4565b9150509250929050565b60006040820190506117b86000830185611631565b6117c56020830184611631565b9392505050565b600080604083850312156117e3576117e26115b6565b5b60006117f1858286016116a4565b9250506020611802858286016115dc565b9150509250929050565b600081519050919050565b600082825260208201905092915050565b6000819050602082019050919050565b6118418161167b565b82525050565b60006118538383611838565b60208301905092915050565b6000602082019050919050565b60006118778261180c565b6118818185611817565b935061188c83611828565b8060005b838110156118bd5781516118a48882611847565b97506118af8361185f565b925050600181019050611890565b5085935050505092915050565b600060208201905081810360008301526118e4818461186c565b905092915050565b600060208284031215611902576119016115b6565b5b6000611910848285016115dc565b91505092915050565b600080600060608486031215611932576119316115b6565b5b6000611940868287016116a4565b9350506020611951868287016115dc565b9250506040611962868287016115dc565b9150509250925092565b7f4e487b7100000000000000000000000000000000000000000000000000000000600052601160045260246000fd5b60006119a6826115bb565b91506119b1836115bb565b92508282026119bf816115bb565b915082820484148315176119d6576119d561196c565b5b5092915050565b7f4e487b7100000000000000000000000000000000000000000000000000000000600052601260045260246000fd5b6000611a17826115bb565b9150611a22836115bb565b925082611a3257611a316119dd565b5b828204905092915050565b6000611a48826115bb565b9150611a53836115bb565b9250828201905080821115611a6b57611a6a61196c565b5b92915050565b7f4e487b7100000000000000000000000000000000000000000000000000000000600052603260045260246000fd5b6000611aab826115bb565b91507fffffffffffffffffffffffffffffffffffffffffffffffffffffffffffffffff8203611add57611adc61196c565b5b600182019050919050565b6000606082019050611afd60008301866116e6565b611b0a60208301856116e6565b611b176040830184611631565b949350505050565b60008115159050919050565b611b3481611b1f565b8114611b3f57600080fd5b50565b600081519050611b5181611b2b565b92915050565b600060208284031215611b6d57611b6c6115b6565b5b6000611b7b84828501611b42565b91505092915050565b600069ffffffffffffffffffff82169050919050565b611ba381611b84565b8114611bae57600080fd5b50565b600081519050611bc081611b9a565b92915050565b6000819050919050565b611bd981611bc6565b8114611be457600080fd5b50565b600081519050611bf681611bd0565b92915050565b600081519050611c0b816115c5565b92915050565b600080600080600060a08688031215611c2d57611c2c6115b6565b5b6000611c3b88828901611bb1565b9550506020611c4c88828901611be7565b9450506040611c5d88828901611bfc565b9350506060611c6e88828901611bfc565b9250506080611c7f88828901611bb1565b9150509295509295909350565b6000604082019050611ca160008301856116e6565b611cae6020830184611631565b9392505050565b600082825260208201905092915050565b7f5265656e7472616e637947756172643a207265656e7472616e742063616c6c00600082015250565b6000611cfc601f83611cb5565b9150611d0782611cc6565b602082019050919050565b60006020820190508181036000830152611d2b81611cef565b9050919050565b6000611d3d826115bb565b9150611d48836115bb565b9250828203905081811115611d6057611d5f61196c565b5b9291505056fea26469706673582212209d782f36c4d37e1bfada8cd8e58cfc0df06be63a46039ce5948a44dbbfb7f17c64736f6c63430008130033",
  "linkReferences": {},
  "deployedLinkReferences": {}
}